{
  "_format": "hh-sol-artifact-1",
  "contractName": "ChainPrizes",
  "sourceName": "contracts/ChainPrizes.sol",
  "abi": [
    {
      "inputs": [
        {
          "internalType": "uint256",
          "name": "_feesLimit",
          "type": "uint256"
        },
        {
          "internalType": "address",
          "name": "_token_BUSD",
          "type": "address"
        },
        {
          "internalType": "address",
          "name": "_token_USDT",
          "type": "address"
        },
        {
          "internalType": "address",
          "name": "_token_USDC",
          "type": "address"
        }
      ],
      "stateMutability": "nonpayable",
      "type": "constructor"
    },
    {
      "anonymous": false,
      "inputs": [
        {
          "indexed": false,
          "internalType": "address",
          "name": "_winner",
          "type": "address"
        }
      ],
      "name": "GameEnded",
      "type": "event"
    },
    {
      "anonymous": false,
      "inputs": [
        {
          "indexed": true,
          "internalType": "address",
          "name": "previousOwner",
          "type": "address"
        },
        {
          "indexed": true,
          "internalType": "address",
          "name": "newOwner",
          "type": "address"
        }
      ],
      "name": "OwnershipTransferred",
      "type": "event"
    },
    {
      "anonymous": false,
      "inputs": [
        {
          "indexed": false,
          "internalType": "address",
          "name": "_player",
          "type": "address"
        },
        {
          "indexed": false,
          "internalType": "uint256",
          "name": "_participations",
          "type": "uint256"
        }
      ],
      "name": "PlayerParticipated",
      "type": "event"
    },
    {
      "inputs": [
        {
          "internalType": "uint256",
          "name": "_seed",
          "type": "uint256"
        },
        {
          "internalType": "uint256",
          "name": "_winAmount",
          "type": "uint256"
        },
        {
          "internalType": "uint256",
          "name": "_refundAmount",
          "type": "uint256"
        }
      ],
      "name": "endGame",
      "outputs": [],
      "stateMutability": "nonpayable",
      "type": "function"
    },
    {
      "inputs": [],
      "name": "feesLimit",
      "outputs": [
        {
          "internalType": "uint256",
          "name": "",
          "type": "uint256"
        }
      ],
      "stateMutability": "view",
      "type": "function"
    },
    {
      "inputs": [
        {
          "internalType": "uint256",
          "name": "",
          "type": "uint256"
        }
      ],
      "name": "gameHistory",
      "outputs": [
        {
          "internalType": "address",
          "name": "",
          "type": "address"
        }
      ],
      "stateMutability": "view",
      "type": "function"
    },
    {
      "inputs": [],
      "name": "gameId",
      "outputs": [
        {
          "internalType": "uint256",
          "name": "",
          "type": "uint256"
        }
      ],
      "stateMutability": "view",
      "type": "function"
    },
    {
      "inputs": [],
      "name": "nativeFunds",
      "outputs": [],
      "stateMutability": "nonpayable",
      "type": "function"
    },
    {
      "inputs": [],
      "name": "owner",
      "outputs": [
        {
          "internalType": "address",
          "name": "",
          "type": "address"
        }
      ],
      "stateMutability": "view",
      "type": "function"
    },
    {
      "inputs": [
        {
          "internalType": "address",
          "name": "_token",
          "type": "address"
        },
        {
          "internalType": "uint256",
          "name": "_amount",
          "type": "uint256"
        }
      ],
      "name": "participate",
      "outputs": [],
      "stateMutability": "payable",
      "type": "function"
    },
    {
      "inputs": [
        {
          "internalType": "uint256",
          "name": "",
          "type": "uint256"
        }
      ],
      "name": "players",
      "outputs": [
        {
          "internalType": "uint256",
          "name": "gameId",
          "type": "uint256"
        },
        {
          "internalType": "address",
          "name": "player",
          "type": "address"
        },
        {
          "internalType": "uint256",
          "name": "participations",
          "type": "uint256"
        }
      ],
      "stateMutability": "view",
      "type": "function"
    },
    {
      "inputs": [
        {
          "internalType": "address",
          "name": "",
          "type": "address"
        }
      ],
      "name": "playersIndex",
      "outputs": [
        {
          "internalType": "uint256",
          "name": "",
          "type": "uint256"
        }
      ],
      "stateMutability": "view",
      "type": "function"
    },
    {
      "inputs": [
        {
          "internalType": "address",
          "name": "",
          "type": "address"
        }
      ],
      "name": "playersParticipations",
      "outputs": [
        {
          "internalType": "uint256",
          "name": "",
          "type": "uint256"
        }
      ],
      "stateMutability": "view",
      "type": "function"
    },
    {
      "inputs": [],
      "name": "renounceOwnership",
      "outputs": [],
      "stateMutability": "nonpayable",
      "type": "function"
    },
    {
      "inputs": [],
      "name": "token_BUSD",
      "outputs": [
        {
          "internalType": "contract IERC20",
          "name": "",
          "type": "address"
        }
      ],
      "stateMutability": "view",
      "type": "function"
    },
    {
      "inputs": [],
      "name": "token_USDC",
      "outputs": [
        {
          "internalType": "contract IERC20",
          "name": "",
          "type": "address"
        }
      ],
      "stateMutability": "view",
      "type": "function"
    },
    {
      "inputs": [],
      "name": "token_USDT",
      "outputs": [
        {
          "internalType": "contract IERC20",
          "name": "",
          "type": "address"
        }
      ],
      "stateMutability": "view",
      "type": "function"
    },
    {
      "inputs": [],
      "name": "tokensFunds",
      "outputs": [],
      "stateMutability": "nonpayable",
      "type": "function"
    },
    {
      "inputs": [
        {
          "internalType": "address",
          "name": "newOwner",
          "type": "address"
        }
      ],
      "name": "transferOwnership",
      "outputs": [],
      "stateMutability": "nonpayable",
      "type": "function"
    }
  ],
  "bytecode": "0x60806040523480156200001157600080fd5b506040516200149a3803806200149a8339810160408190526200003491620000fa565b6200003f336200008d565b6000600555600493909355600180546001600160a01b03199081166001600160a01b03948516179091556002805482169284169290921790915560038054909116919092161790556200014e565b600080546001600160a01b038381166001600160a01b0319831681178455604051919092169283917f8be0079c531659141344cd1fd0a4f28419497f9722a3daafe3b4186f6b6457e09190a35050565b80516001600160a01b0381168114620000f557600080fd5b919050565b600080600080608085870312156200011157600080fd5b845193506200012360208601620000dd565b92506200013360408601620000dd565b91506200014360608601620000dd565b905092959194509250565b61133c806200015e6000396000f3fe6080604052600436106100f35760003560e01c80638da5cb5b1161008a578063d3438aa211610059578063d3438aa214610285578063d7c81b55146102bb578063f2fde38b146102d1578063f71d96cb146102f157600080fd5b80638da5cb5b1461021e578063929df48e1461023c57806393e5a3a214610252578063b64afbe51461027257600080fd5b80634388e1fc116100c65780634388e1fc146101a75780634c86b5fe146101bc57806364cf5ed7146101dc578063715018a61461020957600080fd5b80630eb2949e146100f8578063176c8fd21461011a5780631d418c121461015757806336ddb62a14610192575b600080fd5b34801561010457600080fd5b50610118610113366004611177565b610334565b005b34801561012657600080fd5b5060015461013a906001600160a01b031681565b6040516001600160a01b0390911681526020015b60405180910390f35b34801561016357600080fd5b506101846101723660046111bf565b60076020526000908152604090205481565b60405190815260200161014e565b34801561019e57600080fd5b5061011861042f565b3480156101b357600080fd5b50610118610760565b3480156101c857600080fd5b5060025461013a906001600160a01b031681565b3480156101e857600080fd5b506101846101f73660046111bf565b60086020526000908152604090205481565b34801561021557600080fd5b506101186107e4565b34801561022a57600080fd5b506000546001600160a01b031661013a565b34801561024857600080fd5b5061018460045481565b34801561025e57600080fd5b5060035461013a906001600160a01b031681565b6101186102803660046111da565b6107f8565b34801561029157600080fd5b5061013a6102a0366004611204565b6009602052600090815260409020546001600160a01b031681565b3480156102c757600080fd5b5061018460055481565b3480156102dd57600080fd5b506101186102ec3660046111bf565b610956565b3480156102fd57600080fd5b5061031161030c366004611204565b6109cc565b604080519384526001600160a01b0390921660208401529082015260600161014e565b61033c610a0b565b60065460009061034c9085610a65565b9050610387600682815481106103645761036461121d565b60009182526020909120600160039092020101546001600160a01b031684610aad565b61039081610c21565b61039982610cea565b6103a1610dcc565b6103ad6006600061112a565b6001600560008282546103c09190611249565b925050819055507f51b77d00d3c0b7e376e9ee146711ceb2c08e58a5dbe38055a618e52109f720c1600682815481106103fb576103fb61121d565b6000918252602091829020600390910201600101546040516001600160a01b0390911681520160405180910390a150505050565b610437610a0b565b6001546040516370a0823160e01b81523060048201526000916001600160a01b0316906370a082319060240160206040518083038186803b15801561047b57600080fd5b505afa15801561048f573d6000803e3d6000fd5b505050506040513d601f19601f820116820180604052508101906104b39190611261565b6002546040516370a0823160e01b81523060048201529192506000916001600160a01b03909116906370a082319060240160206040518083038186803b1580156104fc57600080fd5b505afa158015610510573d6000803e3d6000fd5b505050506040513d601f19601f820116820180604052508101906105349190611261565b6003546040516370a0823160e01b81523060048201529192506000916001600160a01b03909116906370a082319060240160206040518083038186803b15801561057d57600080fd5b505afa158015610591573d6000803e3d6000fd5b505050506040513d601f19601f820116820180604052508101906105b59190611261565b905082156106435760015460405163a9059cbb60e01b8152336004820152602481018590526001600160a01b039091169063a9059cbb90604401602060405180830381600087803b15801561060957600080fd5b505af115801561061d573d6000803e3d6000fd5b505050506040513d601f19601f82011682018060405250810190610641919061127a565b505b81156106cf5760025460405163a9059cbb60e01b8152336004820152602481018490526001600160a01b039091169063a9059cbb90604401602060405180830381600087803b15801561069557600080fd5b505af11580156106a9573d6000803e3d6000fd5b505050506040513d601f19601f820116820180604052508101906106cd919061127a565b505b801561075b5760035460405163a9059cbb60e01b8152336004820152602481018390526001600160a01b039091169063a9059cbb90604401602060405180830381600087803b15801561072157600080fd5b505af1158015610735573d6000803e3d6000fd5b505050506040513d601f19601f82011682018060405250810190610759919061127a565b505b505050565b610768610a0b565b600047116107b55760405162461bcd60e51b8152602060048201526015602482015274636f6e747261637420686173206e6f2066756e647360581b60448201526064015b60405180910390fd5b60405133904780156108fc02916000818181858888f193505050501580156107e1573d6000803e3d6000fd5b50565b6107ec610a0b565b6107f66000610e7c565b565b6000341161083f5760405162461bcd60e51b8152602060048201526014602482015273155b9b9858d8d95c1d18589b1948185b5bdd5b9d60621b60448201526064016107ac565b6001546001600160a01b038381169116148061086857506002546001600160a01b038381169116145b8061088057506003546001600160a01b038381169116145b6108ba5760405162461bcd60e51b815260206004820152600b60248201526a2bb937b733903a37b5b2b760a91b60448201526064016107ac565b6108c5828233610ecc565b1561090a5733600090815260086020526040902054156108ed576108e833610fa1565b61090a565b3360009081526008602052604090205461090a5761090a3361102e565b33600081815260086020908152604091829020548251938452908301527fa1afebc8c6aac5007da005558b12ae48ca348418c8aa8e5cda61208ff174175b910160405180910390a15050565b61095e610a0b565b6001600160a01b0381166109c35760405162461bcd60e51b815260206004820152602660248201527f4f776e61626c653a206e6577206f776e657220697320746865207a65726f206160448201526564647265737360d01b60648201526084016107ac565b6107e181610e7c565b600681815481106109dc57600080fd5b60009182526020909120600390910201805460018201546002909201549092506001600160a01b039091169083565b6000546001600160a01b031633146107f65760405162461bcd60e51b815260206004820181905260248201527f4f776e61626c653a2063616c6c6572206973206e6f7420746865206f776e657260448201526064016107ac565b6040805142602082015290810182905244606082015260009083906080016040516020818303038152906040528051906020012060001c610aa6919061129c565b9392505050565b6001546040516370a0823160e01b815230600482015282916001600160a01b0316906370a082319060240160206040518083038186803b158015610af057600080fd5b505afa158015610b04573d6000803e3d6000fd5b505050506040513d601f19601f82011682018060405250810190610b289190611261565b11610b755760405162461bcd60e51b815260206004820152601c60248201527f4e6f7420656e6f75676820425553447320696e20636f6e74726163740000000060448201526064016107ac565b6005546000908152600960205260409081902080546001600160a01b0319166001600160a01b03858116918217909255600154925163a9059cbb60e01b815260048101919091526024810184905291169063a9059cbb90604401602060405180830381600087803b158015610be957600080fd5b505af1158015610bfd573d6000803e3d6000fd5b505050506040513d601f19601f8201168201806040525081019061075b919061127a565b60068054610c31906001906112be565b81548110610c4157610c4161121d565b906000526020600020906003020160068281548110610c6257610c6261121d565b60009182526020909120825460039092020190815560018083015490820180546001600160a01b0319166001600160a01b039092169190911790556002918201549101556006805480610cb757610cb76112d5565b6000828152602081206003600019909301928302018181556001810180546001600160a01b031916905560020155905550565b60005b600654811015610dc857600154600680546001600160a01b039092169163095ea7b3919084908110610d2157610d2161121d565b600091825260209091206003909102016001015460405160e083901b6001600160e01b03191681526001600160a01b03909116600482015260248101859052604401602060405180830381600087803b158015610d7d57600080fd5b505af1158015610d91573d6000803e3d6000fd5b505050506040513d601f19601f82011682018060405250810190610db5919061127a565b5080610dc0816112eb565b915050610ced565b5050565b60005b6006548110156107e15760006008600060068481548110610df257610df261121d565b60009182526020808320600160039093020191909101546001600160a01b0316835282019290925260400181209190915560068054600791839185908110610e3c57610e3c61121d565b60009182526020808320600160039093020191909101546001600160a01b0316835282019290925260400190205580610e74816112eb565b915050610dcf565b600080546001600160a01b038381166001600160a01b0319831681178455604051919092169283917f8be0079c531659141344cd1fd0a4f28419497f9722a3daafe3b4186f6b6457e09190a35050565b6000808311610f115760405162461bcd60e51b81526020600482015260116024820152704e6f7420656e6f75676820746f6b656e7360781b60448201526064016107ac565b6040516323b872dd60e01b81526001600160a01b038381166004830152306024830152604482018590528516906323b872dd90606401602060405180830381600087803b158015610f6157600080fd5b505af1158015610f75573d6000803e3d6000fd5b505050506040513d601f19601f82011682018060405250810190610f99919061127a565b949350505050565b6001600160a01b0381166000908152600760205260408120546006805491929183908110610fd157610fd161121d565b906000526020600020906003020190506001816002016000828254610ff69190611249565b90915550506001600160a01b0383166000908152600860205260408120805460019290611024908490611249565b9091555050505050565b6040805160608101825260055481526001600160a01b03838116602083019081526001938301848152600680548087018255600082905294517ff652222313e28459528d920b65115c16c04f3efc82aaedc97be59f3f377c0d3f60039096029586015591517ff652222313e28459528d920b65115c16c04f3efc82aaedc97be59f3f377c0d40850180546001600160a01b031916919094161790925590517ff652222313e28459528d920b65115c16c04f3efc82aaedc97be59f3f377c0d4190920191909155546110ff91906112be565b6001600160a01b03909116600090815260076020908152604080832093909355600890522060019055565b50805460008255600302906000526020600020908101906107e191905b808211156111735760008082556001820180546001600160a01b03191690556002820155600301611147565b5090565b60008060006060848603121561118c57600080fd5b505081359360208301359350604090920135919050565b80356001600160a01b03811681146111ba57600080fd5b919050565b6000602082840312156111d157600080fd5b610aa6826111a3565b600080604083850312156111ed57600080fd5b6111f6836111a3565b946020939093013593505050565b60006020828403121561121657600080fd5b5035919050565b634e487b7160e01b600052603260045260246000fd5b634e487b7160e01b600052601160045260246000fd5b6000821982111561125c5761125c611233565b500190565b60006020828403121561127357600080fd5b5051919050565b60006020828403121561128c57600080fd5b81518015158114610aa657600080fd5b6000826112b957634e487b7160e01b600052601260045260246000fd5b500690565b6000828210156112d0576112d0611233565b500390565b634e487b7160e01b600052603160045260246000fd5b60006000198214156112ff576112ff611233565b506001019056fea2646970667358221220061a72611d4434f050dbf7aff2415fe5c56152cf2fa82d801a5bde11f2b7db7964736f6c63430008090033",
  "linkReferences": {},
  "deployedLinkReferences": {}
}