{
  "_format": "hh-sol-artifact-1",
  "contractName": "ChainPrizes",
  "sourceName": "contracts/ChainPrizes.sol",
  "abi": [
    {
      "inputs": [
        {
          "internalType": "uint256",
          "name": "_feesLimit",
          "type": "uint256"
        },
        {
          "internalType": "address",
          "name": "_token_BUSD",
          "type": "address"
        },
        {
          "internalType": "address",
          "name": "_token_USDT",
          "type": "address"
        },
        {
          "internalType": "address",
          "name": "_token_USDC",
          "type": "address"
        }
      ],
      "stateMutability": "nonpayable",
      "type": "constructor"
    },
    {
      "anonymous": false,
      "inputs": [
        {
          "indexed": true,
          "internalType": "address",
          "name": "previousOwner",
          "type": "address"
        },
        {
          "indexed": true,
          "internalType": "address",
          "name": "newOwner",
          "type": "address"
        }
      ],
      "name": "OwnershipTransferred",
      "type": "event"
    },
    {
      "inputs": [
        {
          "internalType": "uint256",
          "name": "_seed",
          "type": "uint256"
        },
        {
          "internalType": "uint256",
          "name": "_winAmount",
          "type": "uint256"
        },
        {
          "internalType": "uint256",
          "name": "_refundAmount",
          "type": "uint256"
        }
      ],
      "name": "endGame",
      "outputs": [],
      "stateMutability": "nonpayable",
      "type": "function"
    },
    {
      "inputs": [],
      "name": "feesLimit",
      "outputs": [
        {
          "internalType": "uint256",
          "name": "",
          "type": "uint256"
        }
      ],
      "stateMutability": "view",
      "type": "function"
    },
    {
      "inputs": [
        {
          "internalType": "uint256",
          "name": "",
          "type": "uint256"
        }
      ],
      "name": "gameHistory",
      "outputs": [
        {
          "internalType": "address",
          "name": "",
          "type": "address"
        }
      ],
      "stateMutability": "view",
      "type": "function"
    },
    {
      "inputs": [],
      "name": "gameId",
      "outputs": [
        {
          "internalType": "uint256",
          "name": "",
          "type": "uint256"
        }
      ],
      "stateMutability": "view",
      "type": "function"
    },
    {
      "inputs": [],
      "name": "nativeFunds",
      "outputs": [],
      "stateMutability": "nonpayable",
      "type": "function"
    },
    {
      "inputs": [],
      "name": "owner",
      "outputs": [
        {
          "internalType": "address",
          "name": "",
          "type": "address"
        }
      ],
      "stateMutability": "view",
      "type": "function"
    },
    {
      "inputs": [
        {
          "internalType": "address",
          "name": "_token",
          "type": "address"
        },
        {
          "internalType": "uint256",
          "name": "_amount",
          "type": "uint256"
        }
      ],
      "name": "participate",
      "outputs": [],
      "stateMutability": "payable",
      "type": "function"
    },
    {
      "inputs": [
        {
          "internalType": "uint256",
          "name": "",
          "type": "uint256"
        }
      ],
      "name": "players",
      "outputs": [
        {
          "internalType": "uint256",
          "name": "gameId",
          "type": "uint256"
        },
        {
          "internalType": "address",
          "name": "player",
          "type": "address"
        },
        {
          "internalType": "uint256",
          "name": "participations",
          "type": "uint256"
        }
      ],
      "stateMutability": "view",
      "type": "function"
    },
    {
      "inputs": [
        {
          "internalType": "address",
          "name": "",
          "type": "address"
        }
      ],
      "name": "playersIndex",
      "outputs": [
        {
          "internalType": "uint256",
          "name": "",
          "type": "uint256"
        }
      ],
      "stateMutability": "view",
      "type": "function"
    },
    {
      "inputs": [
        {
          "internalType": "address",
          "name": "",
          "type": "address"
        }
      ],
      "name": "playersParticipations",
      "outputs": [
        {
          "internalType": "uint256",
          "name": "",
          "type": "uint256"
        }
      ],
      "stateMutability": "view",
      "type": "function"
    },
    {
      "inputs": [],
      "name": "renounceOwnership",
      "outputs": [],
      "stateMutability": "nonpayable",
      "type": "function"
    },
    {
      "inputs": [],
      "name": "token_BUSD",
      "outputs": [
        {
          "internalType": "contract IERC20",
          "name": "",
          "type": "address"
        }
      ],
      "stateMutability": "view",
      "type": "function"
    },
    {
      "inputs": [],
      "name": "token_USDC",
      "outputs": [
        {
          "internalType": "contract IERC20",
          "name": "",
          "type": "address"
        }
      ],
      "stateMutability": "view",
      "type": "function"
    },
    {
      "inputs": [],
      "name": "token_USDT",
      "outputs": [
        {
          "internalType": "contract IERC20",
          "name": "",
          "type": "address"
        }
      ],
      "stateMutability": "view",
      "type": "function"
    },
    {
      "inputs": [],
      "name": "tokensFunds",
      "outputs": [],
      "stateMutability": "nonpayable",
      "type": "function"
    },
    {
      "inputs": [
        {
          "internalType": "address",
          "name": "newOwner",
          "type": "address"
        }
      ],
      "name": "transferOwnership",
      "outputs": [],
      "stateMutability": "nonpayable",
      "type": "function"
    }
  ],
  "bytecode": "0x60806040523480156200001157600080fd5b5060405162001353380380620013538339810160408190526200003491620000fa565b6200003f336200008d565b6000600555600493909355600180546001600160a01b03199081166001600160a01b03948516179091556002805482169284169290921790915560038054909116919092161790556200014e565b600080546001600160a01b038381166001600160a01b0319831681178455604051919092169283917f8be0079c531659141344cd1fd0a4f28419497f9722a3daafe3b4186f6b6457e09190a35050565b80516001600160a01b0381168114620000f557600080fd5b919050565b600080600080608085870312156200011157600080fd5b845193506200012360208601620000dd565b92506200013360408601620000dd565b91506200014360608601620000dd565b905092959194509250565b6111f5806200015e6000396000f3fe6080604052600436106100f35760003560e01c80638da5cb5b1161008a578063d3438aa211610059578063d3438aa214610285578063d7c81b55146102bb578063f2fde38b146102d1578063f71d96cb146102f157600080fd5b80638da5cb5b1461021e578063929df48e1461023c57806393e5a3a214610252578063b64afbe51461027257600080fd5b80634388e1fc116100c65780634388e1fc146101a75780634c86b5fe146101bc57806364cf5ed7146101dc578063715018a61461020957600080fd5b80630eb2949e146100f8578063176c8fd21461011a5780631d418c121461015757806336ddb62a14610192575b600080fd5b34801561010457600080fd5b50610118610113366004611030565b610334565b005b34801561012657600080fd5b5060015461013a906001600160a01b031681565b6040516001600160a01b0390911681526020015b60405180910390f35b34801561016357600080fd5b50610184610172366004611078565b60076020526000908152604090205481565b60405190815260200161014e565b34801561019e57600080fd5b506101186103cb565b3480156101b357600080fd5b506101186106fc565b3480156101c857600080fd5b5060025461013a906001600160a01b031681565b3480156101e857600080fd5b506101846101f7366004611078565b60086020526000908152604090205481565b34801561021557600080fd5b50610118610780565b34801561022a57600080fd5b506000546001600160a01b031661013a565b34801561024857600080fd5b5061018460045481565b34801561025e57600080fd5b5060035461013a906001600160a01b031681565b610118610280366004611093565b610794565b34801561029157600080fd5b5061013a6102a03660046110bd565b6009602052600090815260409020546001600160a01b031681565b3480156102c757600080fd5b5061018460055481565b3480156102dd57600080fd5b506101186102ec366004611078565b61090f565b3480156102fd57600080fd5b5061031161030c3660046110bd565b610985565b604080519384526001600160a01b0390921660208401529082015260600161014e565b61033c6109c4565b60065460009061034c9085610a1e565b905061038760068281548110610364576103646110d6565b60009182526020909120600160039092020101546001600160a01b031684610a66565b61039081610bda565b61039982610ca3565b6103a1610d81565b6103ad60066000610fe3565b6001600560008282546103c09190611102565b909155505050505050565b6103d36109c4565b6001546040516370a0823160e01b81523060048201526000916001600160a01b0316906370a082319060240160206040518083038186803b15801561041757600080fd5b505afa15801561042b573d6000803e3d6000fd5b505050506040513d601f19601f8201168201806040525081019061044f919061111a565b6002546040516370a0823160e01b81523060048201529192506000916001600160a01b03909116906370a082319060240160206040518083038186803b15801561049857600080fd5b505afa1580156104ac573d6000803e3d6000fd5b505050506040513d601f19601f820116820180604052508101906104d0919061111a565b6003546040516370a0823160e01b81523060048201529192506000916001600160a01b03909116906370a082319060240160206040518083038186803b15801561051957600080fd5b505afa15801561052d573d6000803e3d6000fd5b505050506040513d601f19601f82011682018060405250810190610551919061111a565b905082156105df5760015460405163a9059cbb60e01b8152336004820152602481018590526001600160a01b039091169063a9059cbb90604401602060405180830381600087803b1580156105a557600080fd5b505af11580156105b9573d6000803e3d6000fd5b505050506040513d601f19601f820116820180604052508101906105dd9190611133565b505b811561066b5760025460405163a9059cbb60e01b8152336004820152602481018490526001600160a01b039091169063a9059cbb90604401602060405180830381600087803b15801561063157600080fd5b505af1158015610645573d6000803e3d6000fd5b505050506040513d601f19601f820116820180604052508101906106699190611133565b505b80156106f75760035460405163a9059cbb60e01b8152336004820152602481018390526001600160a01b039091169063a9059cbb90604401602060405180830381600087803b1580156106bd57600080fd5b505af11580156106d1573d6000803e3d6000fd5b505050506040513d601f19601f820116820180604052508101906106f59190611133565b505b505050565b6107046109c4565b600047116107515760405162461bcd60e51b8152602060048201526015602482015274636f6e747261637420686173206e6f2066756e647360581b60448201526064015b60405180910390fd5b60405133904780156108fc02916000818181858888f1935050505015801561077d573d6000803e3d6000fd5b50565b6107886109c4565b6107926000610e31565b565b6000341180156107a657506004543411155b6107e95760405162461bcd60e51b8152602060048201526014602482015273155b9b9858d8d95c1d18589b1948185b5bdd5b9d60621b6044820152606401610748565b6107f4828233610e81565b1561090b57336000908152600860205260409020546108ed576040805160608101825260055481523360208083018281526001848601818152600680548084018255600082815297517ff652222313e28459528d920b65115c16c04f3efc82aaedc97be59f3f377c0d3f60039092029182015593517ff652222313e28459528d920b65115c16c04f3efc82aaedc97be59f3f377c0d40850180546001600160a01b0319166001600160a01b039290921691909117905590517ff652222313e28459528d920b65115c16c04f3efc82aaedc97be59f3f377c0d41909301929092559054928452600782528484209290925560089052919020555b336000908152600860205260409020541561090b5761090b33610f56565b5050565b6109176109c4565b6001600160a01b03811661097c5760405162461bcd60e51b815260206004820152602660248201527f4f776e61626c653a206e6577206f776e657220697320746865207a65726f206160448201526564647265737360d01b6064820152608401610748565b61077d81610e31565b6006818154811061099557600080fd5b60009182526020909120600390910201805460018201546002909201549092506001600160a01b039091169083565b6000546001600160a01b031633146107925760405162461bcd60e51b815260206004820181905260248201527f4f776e61626c653a2063616c6c6572206973206e6f7420746865206f776e65726044820152606401610748565b6040805142602082015290810182905244606082015260009083906080016040516020818303038152906040528051906020012060001c610a5f9190611155565b9392505050565b6001546040516370a0823160e01b815230600482015282916001600160a01b0316906370a082319060240160206040518083038186803b158015610aa957600080fd5b505afa158015610abd573d6000803e3d6000fd5b505050506040513d601f19601f82011682018060405250810190610ae1919061111a565b11610b2e5760405162461bcd60e51b815260206004820152601c60248201527f4e6f7420656e6f75676820425553447320696e20636f6e7472616374000000006044820152606401610748565b6005546000908152600960205260409081902080546001600160a01b0319166001600160a01b03858116918217909255600154925163a9059cbb60e01b815260048101919091526024810184905291169063a9059cbb90604401602060405180830381600087803b158015610ba257600080fd5b505af1158015610bb6573d6000803e3d6000fd5b505050506040513d601f19601f820116820180604052508101906106f79190611133565b60068054610bea90600190611177565b81548110610bfa57610bfa6110d6565b906000526020600020906003020160068281548110610c1b57610c1b6110d6565b60009182526020909120825460039092020190815560018083015490820180546001600160a01b0319166001600160a01b039092169190911790556002918201549101556006805480610c7057610c7061118e565b6000828152602081206003600019909301928302018181556001810180546001600160a01b031916905560020155905550565b60005b60065481101561090b57600154600680546001600160a01b039092169163095ea7b3919084908110610cda57610cda6110d6565b600091825260209091206003909102016001015460405160e083901b6001600160e01b03191681526001600160a01b03909116600482015260248101859052604401602060405180830381600087803b158015610d3657600080fd5b505af1158015610d4a573d6000803e3d6000fd5b505050506040513d601f19601f82011682018060405250810190610d6e9190611133565b5080610d79816111a4565b915050610ca6565b60005b60065481101561077d5760006008600060068481548110610da757610da76110d6565b60009182526020808320600160039093020191909101546001600160a01b0316835282019290925260400181209190915560068054600791839185908110610df157610df16110d6565b60009182526020808320600160039093020191909101546001600160a01b0316835282019290925260400190205580610e29816111a4565b915050610d84565b600080546001600160a01b038381166001600160a01b0319831681178455604051919092169283917f8be0079c531659141344cd1fd0a4f28419497f9722a3daafe3b4186f6b6457e09190a35050565b6000808311610ec65760405162461bcd60e51b81526020600482015260116024820152704e6f7420656e6f75676820746f6b656e7360781b6044820152606401610748565b6040516323b872dd60e01b81526001600160a01b038381166004830152306024830152604482018590528516906323b872dd90606401602060405180830381600087803b158015610f1657600080fd5b505af1158015610f2a573d6000803e3d6000fd5b505050506040513d601f19601f82011682018060405250810190610f4e9190611133565b949350505050565b6001600160a01b0381166000908152600760205260408120546006805491929183908110610f8657610f866110d6565b906000526020600020906003020190506001816002016000828254610fab9190611102565b90915550506001600160a01b0383166000908152600860205260408120805460019290610fd9908490611102565b9091555050505050565b508054600082556003029060005260206000209081019061077d91905b8082111561102c5760008082556001820180546001600160a01b03191690556002820155600301611000565b5090565b60008060006060848603121561104557600080fd5b505081359360208301359350604090920135919050565b80356001600160a01b038116811461107357600080fd5b919050565b60006020828403121561108a57600080fd5b610a5f8261105c565b600080604083850312156110a657600080fd5b6110af8361105c565b946020939093013593505050565b6000602082840312156110cf57600080fd5b5035919050565b634e487b7160e01b600052603260045260246000fd5b634e487b7160e01b600052601160045260246000fd5b60008219821115611115576111156110ec565b500190565b60006020828403121561112c57600080fd5b5051919050565b60006020828403121561114557600080fd5b81518015158114610a5f57600080fd5b60008261117257634e487b7160e01b600052601260045260246000fd5b500690565b600082821015611189576111896110ec565b500390565b634e487b7160e01b600052603160045260246000fd5b60006000198214156111b8576111b86110ec565b506001019056fea2646970667358221220b7fafe4dab90f3bb3dba2d97c1c644727f308b899bb15a2e3eb6cc0b36e5aa1364736f6c63430008090033",
  "linkReferences": {},
  "deployedLinkReferences": {}
}